{
  "contractName": "Buy",
  "abi": [
    {
      "constant": false,
      "inputs": [
        {
          "internalType": "uint256",
          "name": "merchId",
          "type": "uint256"
        }
      ],
      "name": "buy",
      "outputs": [
        {
          "internalType": "uint256",
          "name": "",
          "type": "uint256"
        }
      ],
      "payable": true,
      "stateMutability": "payable",
      "type": "function"
    },
    {
      "constant": true,
      "inputs": [
        {
          "internalType": "uint256",
          "name": "merchId",
          "type": "uint256"
        }
      ],
      "name": "getBuyers",
      "outputs": [
        {
          "internalType": "address[]",
          "name": "",
          "type": "address[]"
        }
      ],
      "payable": false,
      "stateMutability": "view",
      "type": "function"
    }
  ],
  "bytecode": "0x608060405234801561001057600080fd5b50610288806100206000396000f3fe6080604052600436106100295760003560e01c80637feafd201461002e578063d96a094a146100be575b600080fd5b34801561003a57600080fd5b506100676004803603602081101561005157600080fd5b8101908080359060200190929190505050610100565b6040518080602001828103825283818151815260200191508051906020019060200280838360005b838110156100aa57808201518184015260208101905061008f565b505050509050019250505060405180910390f35b6100ea600480360360208110156100d457600080fd5b81019080803590602001909291905050506101ba565b6040518082815260200191505060405180910390f35b606060008210158015610114575060078211155b61011d57600080fd5b6000826008811061012a57fe5b016000018054806020026020016040519081016040528092919081815260200182805480156101ae57602002820191906000526020600020905b8160009054906101000a900473ffffffffffffffffffffffffffffffffffffffff1673ffffffffffffffffffffffffffffffffffffffff1681526020019060010190808311610164575b50505050509050919050565b60008082101580156101cd575060078211155b6101d657600080fd5b600082600881106101e357fe5b016000013390806001815401808255809150509060018203906000526020600020016000909192909190916101000a81548173ffffffffffffffffffffffffffffffffffffffff021916908373ffffffffffffffffffffffffffffffffffffffff1602179055505081905091905056fea265627a7a7231582009d64942f999a0d92cf062e85ddd5fe3a24ad8d7342373307d7f1847b228b76864736f6c63430005100032",
  "source": "pragma solidity ^0.5.0;\r\n\r\ncontract Buy {\r\n    struct Merch {\r\n        address[] buyers;\r\n    }\r\n\r\n    Merch[8] private merchs;\r\n\r\n    function buy(uint merchId) public payable returns (uint) {\r\n        require(merchId >= 0 && merchId <= 7);\r\n        merchs[merchId].buyers.push(msg.sender);\r\n        return merchId;\r\n    }\r\n\r\n    function getBuyers(uint merchId) public view returns (address[] memory) {\r\n        require(merchId >= 0 && merchId <= 7);\r\n        return merchs[merchId].buyers;\r\n    }\r\n}\r\n",
  "sourcePath": "E:\\Desarrollo\\Programacion\\truffle-merch-shop\\contracts\\Buy.sol",
  "compiler": {
    "name": "solc",
    "version": "0.5.16+commit.9c3226ce.Emscripten.clang"
  },
  "schemaVersion": "3.4.14",
  "updatedAt": "2023-06-08T03:28:34.195Z",
  "networkType": "ethereum",
  "devdoc": {
    "methods": {}
  },
  "userdoc": {
    "methods": {}
  }
}