{
  "contractName": "Buy",
  "abi": [
    {
      "constant": true,
      "inputs": [
        {
          "internalType": "uint256",
          "name": "",
          "type": "uint256"
        }
      ],
      "name": "merchs",
      "outputs": [
        {
          "internalType": "address",
          "name": "",
          "type": "address"
        }
      ],
      "payable": false,
      "stateMutability": "view",
      "type": "function"
    },
    {
      "constant": false,
      "inputs": [
        {
          "internalType": "uint256",
          "name": "merchId",
          "type": "uint256"
        }
      ],
      "name": "buy",
      "outputs": [
        {
          "internalType": "uint256",
          "name": "",
          "type": "uint256"
        }
      ],
      "payable": true,
      "stateMutability": "payable",
      "type": "function"
    },
    {
      "constant": true,
      "inputs": [],
      "name": "getMerchs",
      "outputs": [
        {
          "internalType": "address[8]",
          "name": "",
          "type": "address[8]"
        }
      ],
      "payable": false,
      "stateMutability": "view",
      "type": "function"
    }
  ],
  "bytecode": "0x608060405234801561001057600080fd5b506102c6806100206000396000f3fe6080604052600436106100345760003560e01c80632728baa4146100395780634ea4f1ec146100b4578063d96a094a14610107575b600080fd5b34801561004557600080fd5b506100726004803603602081101561005c57600080fd5b8101908080359060200190929190505050610149565b604051808273ffffffffffffffffffffffffffffffffffffffff1673ffffffffffffffffffffffffffffffffffffffff16815260200191505060405180910390f35b3480156100c057600080fd5b506100c961017c565b6040518082600860200280838360005b838110156100f45780820151818401526020810190506100d9565b5050505090500191505060405180910390f35b6101336004803603602081101561011d57600080fd5b81019080803590602001909291905050506101fd565b6040518082815260200191505060405180910390f35b6000816008811061015657fe5b016000915054906101000a900473ffffffffffffffffffffffffffffffffffffffff1681565b61018461026e565b60006008806020026040519081016040528092919082600880156101f3576020028201915b8160009054906101000a900473ffffffffffffffffffffffffffffffffffffffff1673ffffffffffffffffffffffffffffffffffffffff16815260200190600101908083116101a9575b5050505050905090565b6000808210158015610210575060078211155b61021957600080fd5b336000836008811061022757fe5b0160006101000a81548173ffffffffffffffffffffffffffffffffffffffff021916908373ffffffffffffffffffffffffffffffffffffffff160217905550819050919050565b60405180610100016040528060089060208202803883398082019150509050509056fea265627a7a723158202a60b94ef01dacc906ee5134ad5946e7fba22e1c8102f955b905b68ad5e0e06d64736f6c63430005100032",
  "source": "pragma solidity ^0.5.0;\r\n\r\ncontract Buy {\r\n    address[8] public merchs;\r\n\r\n    function buy(uint merchId) public payable returns (uint) {\r\n        require(merchId >= 0 && merchId <= 7);\r\n        merchs[merchId] = msg.sender;\r\n        return merchId;\r\n    }\r\n\r\n    function getMerchs() public view returns (address[8] memory) {\r\n        return merchs;\r\n    }\r\n}\r\n",
  "sourcePath": "E:\\Desarrollo\\Programacion\\truffle-merch-shop\\contracts\\Buy.sol",
  "compiler": {
    "name": "solc",
    "version": "0.5.16+commit.9c3226ce.Emscripten.clang"
  },
  "schemaVersion": "3.4.14",
  "updatedAt": "2023-06-07T09:03:28.536Z",
  "networkType": "ethereum",
  "devdoc": {
    "methods": {}
  },
  "userdoc": {
    "methods": {}
  }
}