{
  "contractName": "Buy",
  "abi": [
    {
      "constant": false,
      "inputs": [
        {
          "internalType": "uint256",
          "name": "merchId",
          "type": "uint256"
        }
      ],
      "name": "buy",
      "outputs": [
        {
          "internalType": "uint256",
          "name": "",
          "type": "uint256"
        }
      ],
      "payable": true,
      "stateMutability": "payable",
      "type": "function"
    },
    {
      "constant": true,
      "inputs": [
        {
          "internalType": "uint256",
          "name": "merchId",
          "type": "uint256"
        }
      ],
      "name": "getBuyers",
      "outputs": [
        {
          "internalType": "address[]",
          "name": "",
          "type": "address[]"
        }
      ],
      "payable": false,
      "stateMutability": "view",
      "type": "function"
    },
    {
      "constant": true,
      "inputs": [
        {
          "internalType": "uint256",
          "name": "merchId",
          "type": "uint256"
        }
      ],
      "name": "getBuyersCount",
      "outputs": [
        {
          "internalType": "uint256",
          "name": "",
          "type": "uint256"
        }
      ],
      "payable": false,
      "stateMutability": "view",
      "type": "function"
    },
    {
      "constant": true,
      "inputs": [],
      "name": "getMerchCount",
      "outputs": [
        {
          "internalType": "uint256",
          "name": "",
          "type": "uint256"
        }
      ],
      "payable": false,
      "stateMutability": "pure",
      "type": "function"
    }
  ],
  "bytecode": "0x608060405234801561001057600080fd5b50610359806100206000396000f3fe60806040526004361061003f5760003560e01c80637fdc1401146100445780637feafd201461006f578063d96a094a146100ff578063e44dc2fa14610141575b600080fd5b34801561005057600080fd5b50610059610190565b6040518082815260200191505060405180910390f35b34801561007b57600080fd5b506100a86004803603602081101561009257600080fd5b8101908080359060200190929190505050610199565b6040518080602001828103825283818151815260200191508051906020019060200280838360005b838110156100eb5780820151818401526020810190506100d0565b505050509050019250505060405180910390f35b61012b6004803603602081101561011557600080fd5b8101908080359060200190929190505050610253565b6040518082815260200191505060405180910390f35b34801561014d57600080fd5b5061017a6004803603602081101561016457600080fd5b81019080803590602001909291905050506102ec565b6040518082815260200191505060405180910390f35b60006008905090565b6060600082101580156101ad575060078211155b6101b657600080fd5b600082600881106101c357fe5b0160000180548060200260200160405190810160405280929190818152602001828054801561024757602002820191906000526020600020905b8160009054906101000a900473ffffffffffffffffffffffffffffffffffffffff1673ffffffffffffffffffffffffffffffffffffffff16815260200190600101908083116101fd575b50505050509050919050565b6000808210158015610266575060078211155b61026f57600080fd5b6000826008811061027c57fe5b016000013390806001815401808255809150509060018203906000526020600020016000909192909190916101000a81548173ffffffffffffffffffffffffffffffffffffffff021916908373ffffffffffffffffffffffffffffffffffffffff16021790555050819050919050565b60008082101580156102ff575060078211155b61030857600080fd5b6000826008811061031557fe5b0160000180549050905091905056fea265627a7a72315820342c852bdd2b3003f25327f13a7af6845d46f90e6c2892cbcc7ec6022a4fb82464736f6c63430005100032",
  "source": "pragma solidity ^0.5.0;\r\n\r\ncontract Buy {\r\n    struct Merch {\r\n        address[] buyers;\r\n    }\r\n\r\n    Merch[8] private merchs;\r\n\r\n    function buy(uint merchId) public payable returns (uint) {\r\n        require(merchId >= 0 && merchId <= 7);\r\n        merchs[merchId].buyers.push(msg.sender);\r\n        return merchId;\r\n    }\r\n\r\n    function getBuyers(uint merchId) public view returns (address[] memory) {\r\n        require(merchId >= 0 && merchId <= 7);\r\n        return merchs[merchId].buyers;\r\n    }\r\n\r\n    function getBuyersCount(uint merchId) public view returns (uint) {\r\n        require(merchId >= 0 && merchId <= 7);\r\n        return merchs[merchId].buyers.length;\r\n    }\r\n\r\n    function getMerchCount() public pure returns (uint) {\r\n        return 8;\r\n    }\r\n}\r\n",
  "sourcePath": "C:\\Users\\vicma\\Documents\\merch-shop-truffle\\contracts\\Buy.sol",
  "compiler": {
    "name": "solc",
    "version": "0.5.16+commit.9c3226ce.Emscripten.clang"
  },
  "schemaVersion": "3.4.14",
  "updatedAt": "2023-06-08T21:50:22.744Z",
  "networkType": "ethereum",
  "devdoc": {
    "methods": {}
  },
  "userdoc": {
    "methods": {}
  }
}